:020000040800F2
:1000000000080020BD010008BF010008BD70000805
:10001000BF010008BF010008BF010008BF010008C0
:10002000BF010008BF010008BF01000881110008DE
:10003000BF010008BF010008BF010008BF010008A0
:10004000BF010008BF010008BF010008BF01000890
:10005000BF010008BF010008CD7000081171000841
:100060005571000899710008DD710008E905000864
:1000700005060008210600083D060008590600088C
:100080007506000891060008BF010008BF010008BE
:10009000BF010008BF010008BF010008217200086D
:1000A000BF010008BF010008BF010008BF01000830
:1000B000BF010008BF010008BF010008596A00081D
:1000C000856A0008BF010008BF010008F976000832
:1000D0002D770008DD7C0008257D00086D7D000877
:1000E00065720008BF010008BF010008BF010008D9
:1000F000BF010008BF010008BF010008BF010008E0
:10010000BF010008D1180008ED82000861770008DF
:10011000B57D0008FD7D0008BF010008BF01000893
:10012000AD060008C9060008E5060008010700083A
:100130001D070008BF010008BF010008BF0100083B
:10014000BF010008BF010008BF010008BF0100088F
:100150003907000855070008BF010008BF01000863
:10016000BF010008BF0100089D510008BF01000841
:10017000BF010008BF010008BF010008BF0100085F
:10018000BF010008BF010008BF010008BF0100084F
:10019000BF010008BF010008BF010008BF0100083F
:1001A000153A000845430008B94A0008D151000833
:0C01B000FD630008B16A00089D3A0008D9
:1001BC0022E000F000F8FEE72DE9F04F2DED108A5B
:1001CC00C1F80CD0C3689D46BDEC108ABDE8F08F19
:1001DC0000F0D8FA002383F311882846A0470020AA
:1001EC0000F040FEFEE700F0BDFA00F071FC00F0FC
:1001FC00C9FA00DFFEE7000072B6394880F30888C0
:10020C00384880F3098838484EF60851CEF2000180
:10021C00086040F20000CCF200004EF63471CEF2D1
:10022C0000010860BFF34F8FBFF36F8F40F20000E7
:10023C00C0F2F0004EF68851CEF200010860BFF318
:10024C004F8FBFF36F8F4FF00000E1EE100A4EF6A8
:10025C003C71CEF200010860062080F31488BFF3D5
:10026C006F8F00F07BF800F07AF84FF055301F4993
:10027C001B4A91423CBF41F8040BFAE71C49194A4E
:10028C0091423CBF41F8040BFAE71A491A4A1B4B3E
:10029C009A423EBF51F8040B42F8040BF8E70020D9
:1002AC001749184A91423CBF41F8040BFAE700F099
:1002BC0059F800F055F8144C144DAC4203DA54F8CC
:1002CC00041B8847F9E703F0F1FD114C114DAC42CA
:1002DC0003DA54F8041B8847F9E700F042B8000031
:1002EC000008002000100020000000080000002082
:1002FC000008002090BE00080010002068100020AC
:10030C0068100020B0890020A0010008B801000886
:10031C00B8010008BC01000853B94AB9002908BF4C
:10032C0000281CBF4FF0FF314FF0FF3000F00CB82D
:10033C00ADF1080C6DE904CE08F03EFADDF804E0EE
:10034C00DDE9022304B07047704700BF034613F881
:10035C00012B002AFBD1181A0138704770477047DF
:10036C007047FEE71149F0B508200026D1E90134A9
:10037C000A681D46043AAC4210D8E21CD21ADD1EA3
:10038C0022F00302AC4238BF00221344CA689A42DE
:10039C0009D8013801F11001E8D1F0BD52F8047F01
:1003AC0045F8047BE7E743F8046BF0E7D88E0008C8
:1003BC0008B500F03DFF01F043FABDE8084000F03D
:1003CC0000B807F043BF0000014B586A704700BFEC
:1003DC00000C0040034B002258631A610222DA60C1
:1003EC00704700BF000C0040014B0022DA607047E0
:1003FC00000C0040014B5863704700BF000C0040DC
:10040C004FF0E023002258684FF0FF31930003F1C6
:10041C00604303F5614301329042C3F88010C3F886
:10042C008011F3D2704700F1604303F56143090179
:10043C00C9B283F80013012200F01F039A4043094C
:10044C009B0003F1604303F56143C3F880211A60FC
:10045C00704700000B480C49002210B5C0E900227F
:10046C0001234C68226040F8332001330F2B01F13B
:10047C001401F6D1054A4FF0FF335360C2F804342F
:10048C0010BD00BF68100020688F000800000240FB
:10049C002DE9F3470446019191469A4600F0D8F9AC
:1004AC000D2C0BD82C4D01992A680126A6403242FE
:1004BC0008D00027384602B0BDE8F087274800F086
:1004CC000DFCF6E7601CDFF89C8045F8309005EBDE
:1004DC00C00014273243730607FB0487C0F804A03E
:1004EC002A6009D01E4B9A6C42F001029A649A6EF3
:1004FC0042F001029A669B6E16F47E5F09D0184B8F
:10050C009A6C42F002029A649A6E42F002029A6667
:10051C009B6EB9F1000F0CD0142000FB04806A68AC
:10052C0083681A4202D1807CFFF77DFF6B683343EE
:10053C006B6014235C4308EB040158F804004B680F
:10054C00097C1A6822F00F021A600E228A4042605F
:10055C0000221A60AEE700BF68100020588F000818
:10056C0000100240688F00081FB53024CDE902103E
:10057C00CDE9003284F3118800F0F4F8DDE90032A3
:10058C00DDE90210FFF784FF009000F0FBF8002378
:10059C0083F31188009804B010BD000010B40468F7
:1005AC00037C2168427C4068D940006801F00E0150
:1005BC0008420ED001FA03F363600132064B53F884
:1005CC00324034B103EBC203586823465DF8044B48
:1005DC0018475DF8044B70476810002008B500F010
:1005EC0007F90448FFF7DAFF00F01AF9BDE80840F4
:1005FC0000F0F4BD688F000808B500F0F9F8044865
:10060C00FFF7CCFF00F00CF9BDE8084000F0E6BDA8
:10061C007C8F000808B500F0EBF80448FFF7BEFF2C
:10062C0000F0FEF8BDE8084000F0D8BD908F00083F
:10063C0008B500F0DDF80448FFF7B0FF00F0F0F863
:10064C00BDE8084000F0CABDA48F000808B500F052
:10065C00CFF80448FFF7A2FF00F0E2F8BDE808402D
:10066C0000F0BCBDB88F000808B500F0C1F8044814
:10067C00FFF794FF00F0D4F8BDE8084000F0AEBDE1
:10068C00CC8F000808B500F0B3F80448FFF786FFDC
:10069C0000F0C6F8BDE8084000F0A0BDE08F0008EF
:1006AC0008B500F0A5F80448FFF778FF00F0B8F89B
:1006BC00BDE8084000F092BDF48F000808B500F0CA
:1006CC0097F80448FFF76AFF00F0AAF8BDE8084065
:1006DC0000F084BD0890000808B500F089F80448C3
:1006EC00FFF75CFF00F09CF8BDE8084000F076BD19
:1006FC001C90000808B500F07BF80448FFF74EFF8B
:10070C0000F08EF8BDE8084000F068BD309000089D
:10071C0008B500F06DF80448FFF740FF00F080F8D2
:10072C00BDE8084000F05ABD4490000808B500F040
:10073C005FF80448FFF732FF00F072F8BDE808409C
:10074C0000F04CBD5890000808B500F051F8044872
:10075C00FFF724FF00F064F8BDE8084000F03EBD50
:10076C006C90000810B5054CD4E91532134302D037
:10077C00034800F0B3FA0123A36510BDE01000207C
:10078C008090000810B5064C636D13B9A36D002B57
:10079C0002DC044800F0A2FA0023A36510BD00BFE0
:1007AC00E01000208590000810B5064C636D002BFE
:1007BC0001DDA36D13B1044800F090FA0123A36589
:1007CC0010BD00BFE01000208A90000810B5064C48
:1007DC00636D002B02DDA36D002B02DC034800F0DF
:1007EC007DFA0023A36510BDE01000208F90000857
:1007FC0010B5302383F31188074C636D002B01DB9C
:10080C00A36D13B1054800F069FA636D013363659C
:10081C00002383F3118810BDE01000209490000891
:10082C0010B5302383F31188074C636D002B01DD69
:10083C00A36D13B1054800F051FA636D013B63657C
:10084C00002383F3118810BDE0100020999000085C
:10085C00054B5A6D002A02DB9B6D002B02DC034812
:10086C0000F03CBA704700BFE01000209E900008DA
:10087C00044B5A6D12B99B6D002B02DC024800F040
:10088C002DBA7047E0100020A4900008FEE700008D
:10089C00F0B51A4B81620025044687B0586005629A
:1008AC000E4600F077FC04F110030127C4E9043371
:1008BC004FF0FF33C4E90635114AA56004F12C0151
:1008CC00C4E90044656225656565A76580232046FB
:1008DC0000F032FA7368E06007764361094B0093CD
:1008EC00F36801933369CDE90237074B6846CDE9CC
:1008FC00043500F06FFA07B0F0BD00BF18130020EC
:10090C00AA900008AF90000899080008024A536AA0
:10091C0018435062704700BFE0100020002303769C
:10092C00826803691B6899689142FBD25A6803601C
:10093C004260106058607047002303768268036938
:10094C001B6899689142FBD85A680360426010603A
:10095C005860704738B50C46302383F31188FFF785
:10096C0023FF237E0025052B0BD8DFE803F0030AB9
:10097C000A081C16FFF72AFF85F3118838BDE369B6
:10098C001D604FF0FF33E3612046FFF7C7FFFFF711
:10099C001DFF002383F31188F0E7E569FFF758FF8B
:1009AC00AB680133AB60D4E9003213605A60E8E7FE
:1009BC0010B50446FFF74CFF14B9044800F08EF94B
:1009CC002046BDE81040FFF7A9BF00BFC390000848
:1009DC0070B50E4CE6680546FFF74AFF357625687C
:1009EC002B6823605C6001232B76E560EFF30983B1
:1009FC007269643B9A4202D9054800F06FF931469E
:100A0C002846BDE87040FFF7D7BB00BFE0100020C0
:100A1C00B490000870B5104B0D4686B0DE680446E5
:100A2C00FFF726FF6B1C12D033460C4A294668464A
:100A3C0000F0EAFA2046FFF7CBFFFFF709FF009B17
:100A4C0013B1684600F0FAFAF06906B070BD2046A2
:100A5C00FFF7BEFFF8E700BFE010002061090008B7
:100A6C00F8B5134E0446F7680D46FFF701FFA26870
:100A7C00BB68E5619A4204D82046BDE8F840FFF710
:100A8C004DBF3846FFF758FF012305462376F46027
:100A9C00EFF309834269643B9A4202D9054800F09E
:100AAC001DF929462046BDE8F840FFF785BB00BF7D
:100ABC00E0100020B4900008044B1A68DB689068C2
:100ACC009B68984294BF002001207047E0100020E2
:100ADC0038B50D4B1C68D86822681A605360012227
:100AEC002276DC60FFF728FF0546EFF309834269A5
:100AFC00643B9A4202D9054800F0F0F8294620469A
:100B0C00BDE83840FFF758BBE0100020B490000857
:100B1C0038B5074CE568FFF7ABFE23689A68AB68FD
:100B2C009A4203D9BDE83840FFF7D2BF38BD00BFA9
:100B3C00E010002038B50D46044608B1002902DA51
:100B4C00034800F0CBF8C4E90044A56038BD00BFF1
:100B5C001191000870B504460D461646FFF778FE55
:100B6C000CB1002D02DA084800F0B8F8A560236833
:100B7C00A34200D170BD6068436863601C60FFF7DE
:100B8C0017FFC661F3E700BFFA9000081FB53023CA
:100B9C00CDE90210019283F31188FFF7E3FDDDE943
:100BAC0001210398FFF7D6FFFFF7B2FFFFF7EAFD2D
:100BBC00002383F3118805B05DF804FB38B50446B7
:100BCC000D46FFF755FE14B90E4800F087F8A368E0
:100BDC005A1E002AA26012DA1DB9A3604FF0FF3032
:100BEC0038BD094B6268DB682946DC611C605A60C1
:100BFC00052013606360BDE83840FFF70BBF002091
:100C0C00EEE700BFE8900008E010002007B53023A5
:100C1C00CDE9001083F31188FFF7A4FDDDE9001086
:100C2C00FFF7CCFF0090FFF7ADFD002383F3118895
:100C3C00009803B05DF804FB10B5044610B90D48DC
:100C4C0000F04CF8302383F31188FFF78BFDA36879
:100C5C000133002BA36006DC2068036823600021AD
:100C6C005C60FFF7FDFEFFF78DFD002383F3118819
:100C7C0010BD00BFDC90000810B50446FFF7E8FD7E
:100C8C0014B9094800F02AF8A3680133002BA360BB
:100C9C0009DC2068036823605C600023BDE8104019
:100CAC00C361FFF785BE10BDCF90000838B5084C66
:100CBC00084909480123002523706560FFF7E8FD0A
:100CCC0002232370FFF75EFD85F3118838BD00BF4A
:100CDC001813002024910008E010002072B6034B7A
:100CEC001865034B03221A70FEE700BFE0100020CA
:100CFC001813002008B5FFF7ABFDBDE8084000F065
:100D0C00DBB9302383F31188FFF72CBD08B5FFF74F
:100D1C0039FD002383F3118808BD000010B504468B
:100D2C0010B90448FFF7DAFF21460820BDE810404F
:100D3C00FFF770BE389100088B6002230B830023F1
:100D4C0008610B620846704710B50446FFF780FD3A
:100D5C0014B91D48FFF7C2FF6268500708D1A36899
:100D6C00590705D19A4203D29B1AB3F5CC7F02D214
:100D7C001548FFF7B3FFE368FF2B01D8236913B9BC
:100D8C001148FFF7ABFFD4E9012040F8142CA0F177
:100D9C008C0240F81C2C226940F84C2C626940F8FB
:100DAC00482C0A4A40F82C2CE26840F8202C0222ED
:100DBC0000F8102C0022064900F80F2C40F8181CE3
:100DCC0040F8082C283810BD56910008DD010008A9
:100DDC00E010002008B5FFF7B7FFBDE80840FFF7AB
:100DEC00E7BD0000F8B50C4616461F46054648B14F
:100DFC00B1F5CC7F06D340EA01035B0702D1FF2A91
:100E0C0000D817B91048FFF769FF283C2C44FFF7AE
:100E1C0078FFA4F16403E360069B44F8203C0B4B81
:100E2C0044F8043C022300212383094B2361204610
:100E3C002162656144F8247CA660FFF711FEFFF780
:100E4C0065FF2046F8BD00BF44910008DD01000895
:100E5C00E0100020024BDB68D8610F20FFF7B8BD13
:100E6C00E010002007B50190FFF74BFF019803B08D
:100E7C005DF804EBFFF7EEBF07B50190FFF741FFFC
:100E8C000198FFF74BFF03B05DF804EBFFF73EBF93
:100E9C0010B5054CE3680360D8610320FFF798FD9B
:100EAC00E368D86910BD00BFE0100020054BDB687B
:100EBC0021B10360D8610320FFF7ACBD4FF0FF30C8
:100ECC00704700BFE010002003682BB100220260C5
:100EDC00D9611846FFF76CBD7047036823B1002237
:100EEC0002601846FFF7BCBD704707B5CDE900108E
:100EFC00FFF707FFDDE90010FFF7EFFF03B05DF828
:100F0C0004EBFFF703BF10B503689C68A2420CD832
:100F1C005C688A600B604C60216059609968891A22
:100F2C0099604FF0FF33836010BD1B68121BECE718
:100F3C00022938BF022170B504460D4602266019FD
:100F4C00FFF758FAFFF740FA041BA54203D8751CAB
:100F5C002E460446F3E7022E04D9BDE8704001206A
:100F6C00FFF7D4BC70BD0000124B70B5D9610D46B3
:100F7C0003F110014160022A1969826038BF022214
:100F8C00016048601861A8181446FFF723FA02267E
:100F9C00FFF71AFA401B844204D80136A819FFF750
:100FAC0029FAF5E7022E04D9BDE870400120FFF7BD
:100FBC00ADBC70BDE010002070B50D460646FFF7C5
:100FCC0003FA0F490B4653F8102F9A4206D12A46C2
:100FDC0001463046BDE87040FFF7C6BFCB69C41A66
:100FEC002C19936828BF2C46A34202D92946FFF737
:100FFC009FFF224631460348BDE87040FFF783BF90
:10100C00E0100020F0100020F8B504460D461646FE
:10101C001F46FFF71DFC0CB106B115B90648FFF7CA
:10102C005DFE0023C4E90367636129462046BDE8E1
:10103C00F840FFF7C1BF00BF7991000838B50446EE
:10104C00FFF706FC14B91A48FFF748FE194D2B6937
:10105C009C420DD0D4E90032A16813605A609A68A2
:10106C000A449A60002323604FF0FF33AB6138BD14
:10107C002B46226843F8102F5360002222602A6905
:10108C009A4203D1BDE83840FFF7AEB99368A16826
:10109C000B449360FFF798F92A69EB699268C41ABC
:1010AC00A242E4D91344191ABDE83840FFF740BFF7
:1010BC006C910008E01000202DE9F047FFF7C8FB09
:1010CC002A4E06F110082A4F3469FFF77DF9F569AD
:1010DC00A368421B93423ED81D44D4E90032F5610B
:1010EC0013605A60002323603269BA42994601D1D9
:1010FC00FFF77AF9FFF76AFB89F31188D4E903311A
:10110C0020469847302383F31188FFF74DFB636922
:10111C00002BD9D0FFF758F96269A0EB05094A45B5
:10112C0082460CD20220FFF7F1FB00223369BB424E
:10113C0008D151462046BDE8F047FFF715BF2A44B9
:10114C00121AF3E712EB090938BF4A46214640460A
:10115C00FFF7D9FEB7E73269BA4205D01D44291A08
:10116C00BDE8F047FFF7E4BEBDE8F087E0100020D3
:10117C00F0100020EFF3098305494A6B22F00102BD
:10118C004A63683383F30988002383F3118870471B
:10119C0000EF00E0302080F3118862B60C4B0D4A52
:1011AC00D96821F4E0610904090C0A43DA60D3F828
:1011BC00FC20094942F08072C3F8FC200A6842F016
:1011CC0001020A602022DA7783F82200704700BF00
:1011DC0000ED00E00003FA05001000E010B530232C
:1011EC0083F311880E4B5B6813F4006314D0F1EE9B
:1011FC00103AEFF30984683C4FF08073E361094BBC
:10120C00DB6B236684F30988FFF756FC10B1064BA1
:10121C00A36110BD054BFBE783F31188F9E700BF11
:10122C0000ED00E000EF00E0F3010008FE01000813
:10123C001D4B9A6A4FF0FF3210B59A620024996ADE
:10124C009C62996AD96A61F0FF01D962D96AC9B204
:10125C00D962D96A196B1A63196B1C63196B996B78
:10126C0061F080519963996B01F080519963996B8E
:10127C00D96BDA63D96BDC63D96B196C1A641A6C91
:10128C001C641A6C9A6D42F080529A659A6F42F007
:10129C0080529A679B6FFFF7DDF8044B5C60BDE8EA
:1012AC001040FFF7ADB800BF0010024000700040C6
:1012BC009142F8B506460D46144602D38B1A1F2BE5
:1012CC0002D91248FFF70AFD60096F0905F01F01EA
:1012DC00B0EB551F01F101014FF0010303FA01F3CB
:1012EC0038BF56F8271004F01F0203F1FF3356F8ED
:1012FC0020403FBF0B40C2F120018B4024FA02F08A
:10130C002ABF04EA03001843D040F8BDB09100088E
:10131C0070B5054610B91648FFF7E0FC7E227F2118
:10132C002846FFF7C5FF18B1012819D0002070BD61
:10133C003E2249212846FFF7BBFF2F2204463121CC
:10134C002846FFF7B5FF5022064653212846FFF7E3
:10135C00AFFF01340236B440093804FA00F0E6E776
:10136C00302245212846FFF7A3FF01308002DEE73B
:10137C009C91000810B5044610B90948FFF7AEFC63
:10138C0094F8D63094F8D72094F8D5001B0403EBCE
:10139C00026394F8D420134403EB002010BD00BF6B
:1013AC008491000838B50C46054600B111B90748C0
:1013BC00FFF794FC2B79052B01BFAB6A63604FF4EC
:1013CC00007323600CBF0020012038BDC1910008C0
:1013DC00F8B50E4617461D46044608B102B113B9BE
:1013EC000C48FFF77BFCA26A731E2B44934205D971
:1013FC00636B43F0800363630120F8BD0623237104
:10140C003A462B463146204600F0D8FC0523237182
:10141C00F3E700BFDD910008F8B50E4617461D46F0
:10142C00044608B102B113B90C48FFF757FCA26A85
:10143C00731E2B44934205D9636B43F080036363A3
:10144C000120F8BD072323713A462B46314620462E
:10145C0000F0DBFC05232371F3E700BFD4910008F7
:10146C0038B5044610B90748FFF738FC2579052D27
:10147C0006D108232371204600F0EEFC257138BDFF
:10148C000120FCE7CC9100082DE9F04385B004461F
:10149C0002AF10B9BD48FFF721FC0323237120468E
:1014AC0000F080FA00221146204600F0A9FA4FF411
:1014BC00D5723B1D0821204600F0C3FA0246B0B994
:1014CC00012323637B68C3F30323012B09D13B1D49
:1014DC003721204600F0B5FA18B9AD4B7A681340A5
:1014EC00A3B1204600F076FA0125022342E13B1D10
:1014FC0000223721204600F0A4FA28B9A44A7B68C0
:10150C001A40002A00F0A68002232363236B03F009
:10151C000F03022B40F0AB809E4E64253B1D3246E0
:10152C000121204600F077FA0028DAD17B68002BE5
:10153C0080F296805B0003D5236B43F0100323638A
:10154C00002204F108030221204600F0F9FA0246B9
:10155C000028C6D104F138030321204600F071FAAB
:10156C000028BED104F11805A26B2B460921204698
:10157C0000F0E6FA0028B4D1A26B3B4607212046C6
:10158C0000F05FFA81460028ABD1236B03F00F0308
:10159C00022B40F09880804A3B1D0621204600F02B
:1015AC0050FA002840F08D8079497B681940B1FAD7
:1015BC0081F14909204600F003FA236B03F00F0375
:1015CC00022B40F0AF807E227F212846FFF770FE71
:1015DC00012840F2A780002304F1540500934FF436
:1015EC00007208232946204600F0C6FA00287FF432
:1015FC0078AF2846FFF7BEFEA0623B464FF4007260
:10160C001021204600F01DFA054600287FF469AF32
:10161C005F4E3B6833427FF464AF236B13F00E0FC5
:10162C0003F00F0200F08280022A7FF45AAFE36AC3
:10163C001978012900F0A480022900F0A480002967
:10164C0000F09780DFF86081204600F0C8F93B1D60
:10165C00424683E022631146204600F0D1F955E75B
:10166C00013D3FF43EAF6420FFF706FC56E74B4DBF
:10167C004B4ADFF81C81012B18BF154664263B1D15
:10168C0000223721204600F0DCF900287FF429AF36
:10169C007B6813EA080F7FF424AF3B1D2A462921EF
:1016AC00204600F0B8F900287FF41BAF7B68002BB4
:1016BC00FFF640AF013E3FF414AF6420FFF7DCFBB4
:1016CC00DDE7494676E77F216E467E2290B02846BC
:1016DC00FFF7EEFD0DF10808014608B9B54669E7BC
:1016EC00CDF80090062340224146204600F044FAF3
:1016FC00B0B9B8F80C1049BA11F00201EED0294B70
:10170C000093402206234146204600F035FA38B9B2
:10171C0098F8101001F00F010F3918BF0121DDE707
:10172C00B546DEE62846FFF7F3FD65E7E36A197870
:10173C00F9B101297FF4D5AE204600F050F9A26B27
:10174C003B1D3721204600F07CF900287FF4C9AE00
:10175C007B6833427FF4C5AE3B1D02220621204636
:10176C0000F06FF900287FF4BCAE7B6833427FF445
:10177C00B8AE052328460C372371BD46BDE8F0836F
:10178C00DFF8288060E7DFF828805DE7F391000838
:10179C0008E0FFFD0080FFC00001B9030080FF508E
:1017AC0000001080F1FFFF800000B7030001B703B9
:1017BC000002B70337B50D4D0446A26B01AB0D21EA
:1017CC00204600F03EF970B9019B2B420AD1C3F3BD
:1017DC004323042B07D0053B022B03D80A20FFF729
:1017EC004BFBEAE7012003B030BD00BF08E0FFFD72
:1017FC0070B5044610B91148FFF770FA302383F323
:10180C001188FEF7AFFF2379022B4FF0000505D1AD
:10181C00FEF7B8FF85F31188284670BD04232371A9
:10182C00FEF7B0FF85F311882046FFF7C3FF0226B1
:10183C000546204600F0CEF82671EDE7E59100084C
:10184C0000F05EB8044B0360012303710023C0E970
:10185C000A334363704700BF0892000838B50D4641
:10186C00044610B90948FFF739FA302383F311887D
:10187C00FEF778FF2046E56200F05CF80223237146
:10188C00FEF780FF002080F3118838BDFE91000820
:10189C0001F001038A0748BF43F002034A0748BF1F
:1018AC0043F008030A0748BF43F00403CA0648BFC5
:1018BC0043F010038A06426B48BF43F020031A43DF
:1018CC004263704710B5FEF793FF302383F3118802
:1018DC00FEF76AFF084B09480024DC632146FFF73A
:1018EC00F3FAFEF773FF84F31188FEF799FFBDE856
:1018FC001040FFF773BC00BF002801405C130020B0
:10190C0010B5094C2046FFF79DFF084A626400237E
:10191C00C4E90F32E364064B23650921BDE810408E
:10192C003120FEF780BD00BF2013002000366E0171
:10193C0000280140C36A10B504460BB9164BC362AC
:10194C004FF42863A3642379012B1ED1134B9C42C3
:10195C001BD100231A4609210B20FEF799FDA36C1D
:10196C004268E06443F4E623A364236D8033936000
:10197C000B4B1A6E42F480621A66D3F8802042F444
:10198C008062C3F88020D3F88030236D00221A6067
:10199C005A60DA625A6210BD72920008201300205D
:1019AC0000100240036D76225A601A6842F003025E
:1019BC001A605A6842F480725A606420FFF75CBA6D
:1019CC00026D536823F43F7323F0030343F4007355
:1019DC0053607047036D00225A601A607047026DA5
:1019EC005368012923F4C05304D0022905D001B94E
:1019FC005360704743F40063FAE743F48053F7E70E
:101A0C00036D41F480619A60D9605A6B1206FCD563
:101A1C0080229A63704710B5046D41F48861A2600E
:101A2C00E160616B11F04502FBD0A26311F004027E
:101A3C0003D0FFF72DFF012010BD6169196010461E
:101A4C00FAE710B5046D41F48861A260E160616B46
:101A5C0011F04502FBD0A26311F0050203D0FFF791
:101A6C0017FF012010BD616919601046FAE70000EC
:101A7C002DE9F041302305460F46164683F31188B5
:101A8C00FEF770FE2B6DDB6B2BB14FF0FF3105F1C8
:101A9C003C00FFF70BFA2B6D5C6B14F4807406D1D1
:101AAC00FEF770FE84F311880120BDE8F081EA6C2A
:101ABC0051684C68002CFCD1086820F00F000860BD
:101ACC00107C11680E2282404A60094A9A63DC62DB
:101ADC00FEF758FE84F31188012F07D933462246AE
:101AEC0028460C21BDE8F041FFF7ABBF2046DCE7F0
:101AFC00FF054000F7B50192C26C046D57680E46A5
:101B0C00616B3D6825F00F053D60177C15680E2252
:101B1C00BA406A60094AA2630025E563E562FFF7F3
:101B2C00B7FE012E07D9019B2A460C2103B0BDE854
:101B3C00F040FFF786BF03B0F0BD00BFFF054000CB
:101B4C0010B5046D41F49861A260E160616B11F015
:101B5C004502FBD0A26311F03F0203D0FFF798FEC1
:101B6C00012010BD216A1960E1695960A169996071
:101B7C006169D9601046F4E7B2F1807FF7B504468D
:101B8C000F4615461E4602D32448FFF7A7F8236DCF
:101B9C00226C5A622046FFF70DFE38B1204601AA8E
:101BAC000121FFF7A7FF012003B0F0BDE06C4268F4
:101BBC00AB08D7605360C76890F810C03B680F2122
:101BCC0001FA0CF023EA0003B4F84A0000FA0CF016
:101BDC0018433860A36C1360136843F0010313605F
:101BEC00226D0F4B93634FF49573D363204695622C
:101BFC0001ABD162089A3146FFF723FF0028CDD103
:101C0C00084B019A1340002BC8D101AA0121204690
:101C1C00FFF72EFF0028C7D0C0E700BF579200087F
:101C2C00FF05400008E0FFFDB3F5004F2DE9F3413F
:101C3C0004460E4690461D4602D32A48FFF74EF83E
:101C4C00236D226C5A622046FFF7B4FD002837D171
:101C5C00E76C68027B68D7F80CC0C3F80C8082086C
:101C6C005A603F7CDCF800100F22BA4021EA0201D6
:101C7C00B4F84A20BA400A43CCF80020A26C1A608F
:101C8C001A6842F001021A60236D174A9A634FF4E6
:101C9C009572DA639B229862DA62236BDB0658BF7B
:101CAC007602012D01AB32460DD912212046FFF7E9
:101CBC00C8FE50B1204601AA2946FFF71BFF0120A0
:101CCC0002B0BDE8F0811121F0E7084B019A1340F6
:101CDC00002BEFD101AA29462046FFF7C9FE0028A8
:101CEC00EED0E7E742920008FF05400008E0FFFD58
:101CFC00B3F5004F2DE9F34104460E4690461D46C0
:101D0C0002D32B48FEF7EAFF236D626C5A62204621
:101D1C00FFF750FD002837D1E76C68027B68D7F8D5
:101D2C000CC0C3F80C8082085A603F7CDCF80010B1
:101D3C000F22BA4021EA0201B4F84A20BA400A4301
:101D4C00CCF80020A26C276D42F010021A601A68C1
:101D5C0042F001021A60174BBB634FF48D73FB63A7
:101D6C00236BB862DB0658BF7602012D01AB3246FD
:101D7C000DD919212046FFF764FE50B1204601AA67
:101D8C002946FFF7B7FE012002B0BDE8F08118210B
:101D9C00F0E7094B019A1340002BEFD19923FB621A
:101DAC0001AA29462046FFF763FE0028ECD0E5E7A0
:101DBC002C920008FF05400008E0FFFD12F0030F15
:101DCC002DE9F04107460C4615461E4619D00E4427
:101DDC0000F15408B44202D10020BDE8F081012387
:101DEC00424621463846FFF71FFF0028F5D128460A
:101DFC004FF40072414606F0DBFF05F50075013427
:101E0C00E8E7BDE8F041FFF70FBF12F0030F2DE933
:101E1C00F04107460C4615461E4619D00E4400F1FB
:101E2C005408B44202D10020BDE8F08129464FF499
:101E3C000072404606F0BCFF01234246214638465C
:101E4C0005F50075FFF754FF0028EDD10134E8E7E4
:101E5C00BDE8F041FFF74CBF002070477F2810B55C
:101E6C0006D931B1FF2811D8094B803833F810004E
:101E7C0010BD074A32F8024B84428BB203D00131B9
:101E8C008029F7D10B468033D8B2F1E70020EFE779
:101E9C00749200080649002331F8022B22B18242C9
:101EAC0003D1044A32F8130070470133F4E700BF42
:101EBC00749300085495000810B513460A46014661
:101ECC000448FFF785FA044608B106F05FFC20468B
:101EDC0010BD00BF2013002010B513460A46014662
:101EEC000448FFF799FA044608B106F04FFC204667
:101EFC0010BD00BF20130020024B1879053818BF05
:101F0C0001207047201300200020704710461A460D
:101F1C00FFF7D2BF10461A46FFF7DEBF084603296B
:101F2C0003D8DFE801F00C04080D04207047064BC1
:101F3C009B6A136002E04FF400731380002070471B
:101F4C004FF48073F5E700BF2013002008B500EBB9
:101F5C004003044800EB830008600121FEF7EAFD12
:101F6C00012008BD7415002008B56FF00102002196
:101F7C00FEF70CFE012008BD08B542F21071FEF709
:101F8C0045FEB0FA80F0400908BDFEF755BE06F0DC
:101F9C0077BD06F07DBD00687047C3690239023B0E
:101FAC008B4283BF4389006B01FB03000020704709
:101FBC00836A026804335289490AB1FBF2F118684A
:101FCC0030B1814202D3091A0833F8E75868084443
:101FDC007047C2F307238A76CB760378032B01BFB5
:101FEC00120C0A75120A4A75704700F10B01002297
:101FFC00D30143EA520310F8012B52FA83F38842BF
:10200C00DAB2F5D110467047026810B552B11146DC
:10201C000B4611F8014B1F2C0CD93A2CF8D1511C42
:10202C008B4202D04FF0FF3005E01278302AF9D104
:10203C0001330360002010BD48B10C2902D80A29D5
:10204C0002D970470F2902D00069FFF79EBF704775
:10205C0001380A4411F8013B00F8013F9142F9D1D3
:10206C0070472DE9F041466B00F138080446012316
:10207C00407832464146FFF74DFF0546A8B9A36AA2
:10208C00226AE070F31A934202D2A778012F02D889
:10209C002846BDE8F081236A60781E44324601234D
:1020AC004146FFF737FF013FF0E70125F0E7C37822
:1020BC000BB1FFF7D6BF1846704738B5436B8B4250
:1020CC0005460C4610D0FFF7F2FF60B9224668783F
:1020DC00012305F13801FFF719FF00281CBF4FF051
:1020EC00FF3401206C6338BD0020FCE7002310B5E1
:1020FC00C3704FF0FF3343630446FFF7DEFF034624
:10210C0018BBB4F836124AF6552291421FD194F8F6
:10211C003820E92A05D0A26B0F4902F0FF128A423F
:10212C0017D104F16E00FFF736FF0C4A20F07F4008
:10213C00904208D004F18A00FFF72DFF084BC01A1B
:10214C0018BF01204300184610BD0423FBE70323EE
:10215C00F9E70223F7E700BFEB009000464154007B
:10216C004641543301292DE9F84306460C461546E1
:10217C0076D9C3698B4273D90378022B3FD0032BDA
:10218C0050D0012B6CD101EB5107816A01EB572127
:10219C00FFF793FF034638BB06F1380807F1010936
:1021AC00C7F3080714F001041FBF18F807202B0110
:1021BC0003F0F00302F00F0214BF1343EBB208F864
:1021CC000730B16A0123F37001EB59213046FFF758
:1021DC0074FF034640B9C9F3080944B1C5F30712AB
:1021EC0008F809200122F2701846BDE8F88318F8A7
:1021FC00092022F00F01C5F303220A43F0E7816A9C
:10220C0001EB1421FFF759FF03460028ECD16400C1
:10221C0006F1380204F4FF7411191555C5F30722A1
:10222C004A70DFE7816A01EBD411FFF746FF0346E2
:10223C000028D9D1A40006F1380704F4FE7439192A
:10224C000846FFF7A8FE25F0704200F070400243EC
:10225C00100A3A554870100C120E8870CA70C1E7FB
:10226C000223C1E703284B8B04BF8A8A43EA02434B
:10227C00184670470129F8B506460C464ED9C36975
:10228C0099424BD20378022B29D0032B34D0012B4B
:10229C0044D101EB5105816A01EB5521FFF70DFF8C
:1022AC0010B14FF0FF30F8BD6F1CB16AC5F30805D3
:1022BC00354401EB5721304695F83850FFF7FDFEB9
:1022CC000028EED1C7F30807374497F8383045EAB1
:1022DC000320E3074CBF0009C0F30B00E3E7816A5E
:1022EC0001EB1421FFF7E9FE0028DAD1640004F4B5
:1022FC00FF743444208FD6E7816A01EBD411FFF7C9
:10230C00DCFE0028CDD1A40006F1380004F4FE74E4
:10231C002044FFF740FE20F07040C4E70120C2E7E4
:10232C0073B50C46012C0568064611462CD9EB6991
:10233C00A34229D92AB14FF0FF322846FFF712FFEA
:10234C0040B9214630680194FFF794FF0199044687
:10235C0010B9002002B070BD012815D0431C15D057
:10236C0000222846FFF7FEFE0028F3D1D5E90632FD
:10237C00911E8B4205D20133AB612B7943F00103E3
:10238C002B71A242DDD8E4E70220E3E70120E1E76C
:10239C002DE9F041056880460F4671B96E69EEB1C2
:1023AC00EB69B34298BF01263446EB690134A34272
:1023BC0017D8012E14D1002406E02846FFF75AFF47
:1023CC000128044603D801242046BDE8F081431CB3
:1023DC0030D0EB698342F7D83E46E5E70126E3E7C8
:1023EC000224D8F800002146FFF744FF30B1012841
:1023FC00E9D001301ED0B442D7D1DCE74FF0FF3228
:10240C0021462846FFF7AEFE90B957B9D5E90632FA
:10241C00023A93426C6110D32B7943F001032B7178
:10242C00D2E7224639462846FFF79CFE0028EDD01D
:10243C000128C8D14FF0FF34C6E7013BAB61EBE795
:10244C00B1F5001FF8B5056806460C4601D302200D
:10245C00F8BDCA06FBD182680161BAB92B78022B90
:10246C0001D9EB6A9BB92B89B3EB541FEFD9E86AFE
:10247C00C6E905200028EAD000EB54203835C4F317
:10248C0008042544B061F5610020E1E713466F892B
:10249C001A467F02BC42114603D22846FFF77DFD47
:1024AC00E6E73068FFF7E6FE431C024606D001283B
:1024BC00CDD9EB698342CAD9E41BEBE70120C7E70E
:1024CC0070B50E46054620B900233360092420461A
:1024DC0070BD0368002BF7D01A78002AF4D0D98885
:1024EC0082889142F0D15878FFF70EFD10F001046C
:1024FC00EAD12B6833601869FFF73EFD002808BF4E
:10250C000F24E4E703692DE9F04703F12008836900
:10251C0005468A468BB1B8F5001F0ED2C8F30807E2
:10252C000468002F50D141690133836139B9238983
:10253C00B3EB581F48D80023AB6104200DE0B4F86E
:10254C000A9009F1FF3919EA58293DD12046FFF7C5
:10255C0091FE0128064602D80220BDE8F087421CF5
:10256C0001D10120F9E7E369834227D8BAF1000FC2
:10257C00E1D069692846FFF70BFF0646002836D0E4
:10258C000128E9D0431CECD02046FFF790FD002831
:10259C00E7D104F1380304F50E7203F8010B9342F2
:1025AC00FBD131462046FFF7F8FC4FF0010A638956
:1025BC00606399450FD3A0EB090060636E613146EF
:1025CC002046FFF7EAFCA86138343C44C5F810807B
:1025DC00EC610020C1E784F803A02046FFF741FD21
:1025EC000028BED1606B09F101090130DFE707203B
:1025FC00B3E700002DE9F04F002185B0D0F800B012
:10260C000446FFF71DFF0646002840F098804FF067
:10261C00FF3A4FF0FF08C4F82CA0C146A1695846F8
:10262C00FFF74BFD0646002840F08980E5692F78BE
:10263C00002F00F08880EA7AE52F02F03F03A371A7
:10264C0003D0100704D50F2B04D0C4F82CA050E0F5
:10265C000F2B56D194F82B30590640D47A0646D518
:10266C00236995F80D80E36207F0BF076B7B434548
:10267C003FD16B8B002B3CD12E78DBF80C300093C8
:10268C0006F03F06013E0D23DFF8C4905E430122A5
:10269C0019F8013BEB5A7AB37F2E2AD818460393CC
:1026AC00FFF7F8FB009B0290711C33F816000191A8
:1026BC00FFF7F0FB029A82421BD1039B01991A4649
:1026CC000E46224B9945E3D12B785B0604D51AB103
:1026DC00009B33F8163063B9013F5FFA87F900218C
:1026EC002046FFF70FFF0646002897D027E0B94594
:1026FC00BCD04FF0FF09F2E74FF6FF718B42E0D0F0
:10270C00F7E7B9F1000F04D12846FFF76EFC4045FE
:10271C0015D094F82B6016F0010696D104F1200226
:10272C0005F10B0115F8013B12F8010B8D42A3EBDF
:10273C00000302D0002BF5D087E7002B85D1304663
:10274C0005B0BDE8F08F0426F9E700BFD19700086B
:10275C00C4970008F0B5002385B00B600F461546F2
:10276C00FFF752FC061EC0F210818C4B53F826402A
:10277C00002C00F00C812069FFF7FEFB002800F014
:10278C0008813C60237805F0FE0563B16078FFF7A3
:10279C00BBFBC70707D41DB110F0040500D00A25F8
:1027AC00284605B0F0BD0023F0B223706070FFF72F
:1027BC00A3FBC10700F1EF800DB14207EFD400215C
:1027CC002046FFF793FC022840F0C6806F4604F5C4
:1027DC00FF7304F23E213A4613F8040C10B118466C
:1027EC00FFF7D9FB10338B4242F8040BF4D10025D0
:1027FC0057F8046B002E00F0A68031462046FFF7F8
:10280C0075FC012800F2A080B4F84330B3F5007FCA
:10281C0040F0A680B4F84E1021B904F15C00FFF72B
:10282C00BAFB014694F848202162531E012BA2707A
:10283C0000F2968094F845506581002D00F0908050
:10284C006B1E2B4240F08C80B4F8497027813B07FB
:10285C0040F08680B4F84B0018B904F15800FFF72B
:10286C009AFBB4F84630002B7AD001FB02FC03EB48
:10287C00171EE644704573D3A0EB0E00A842B0FBC4
:10288C00F5F26DD34FF6F57082426DD840F6F575C2
:10289C00AA428CBF02250125023233440EEB0600FE
:1028AC00032DE2616662A36220635FD1B4F86230EB
:1028BC003B4355D104F16400FFF76DFB920002F22B
:1028CC00FF12B1EB522FE0624AD34FF0FF33C4E951
:1028DC000533032D4FF0800323712BD1B4F86830EE
:1028EC00012B27D1711C2046FFF7E7FB10BBB4F876
:1028FC00362220714AF655239A421BD104F1380036
:10290C00FFF749FB264B984214D104F50770FFF7EB
:10291C0042FB03F1FF5303F500532033984209D1D6
:10292C0004F50870FFF737FBA06104F50970FFF799
:10293C0032FB60611B4A2570138801339BB21380F4
:10294C00E38000252CE703200135042D7FF450AFE4
:10295C00042805D1012523E70428FBD0012801D93F
:10296C000D251DE700264FE7032595E7002FF7D02F
:10297C00022D03EB0C004FEA42031BBF9B1802F025
:10298C0001021A4602EB530299E70B2508E70C25C6
:10299C0006E70F2504E7032502E700BF801500209A
:1029AC0052526141841500202DE9F04F90F82B50C4
:1029BC0015F0A00589B0044640F090800668F268D6
:1029CC0032F81530002B67D104F120070C22394660
:1029DC0005A8FFF73DFB9DF81F30DB0740F1878012
:1029EC004023DFF8448284F82B304FF0010A0B228D
:1029FC0005A93846D6F80C90FFF72AFBBAF1050F5B
:102A0C005BD9A9F10201534631F8022F002A45D1B6
:102A1C0005A8072203F00F0C0CF13001392988BFEF
:102A2C000CF137010F2B00F8011D02F1FF324FEAB8
:102A3C00131144D802F120036B447E2103F8141CBB
:102A4C0004F11F0108460023934206D010F801CF71
:102A5C00BCF1200F03F1010E33D1072A9CBF02F108
:102A6C002000684403F1010396BF10F8140C2020D9
:102A7C000132072BC854F0D92046FFF7BBFD814625
:102A8C0078BB0AF1010ABAF1640FB0D14FF0070913
:102A9C00484609B0BDE8F08F013591E7102002F0EF
:102AAC00010C0CEB430313F4803F18BF83EA0803BB
:102ABC0001384FEA5202F2D1A6E75346A8E70B467B
:102ACC00A8E77346C0E7804601212046FFF71AFDB0
:102ADC00814610B3B9F1040FD8D0D9E74FF00609ED
:102AEC00D6E70428D4D19DF81F3084F82B309DF8FC
:102AFC001F30D4F800A09B0748BF0C354FF00001E5
:102B0C00204649BF0D230125B5FBF3F50135FFF731
:102B1C0097FC81460028DDD18046A1695046FFF71D
:102B2C00CCFA81460028D5D1E3691B78E52B01D07E
:102B3C00002BC8D108F101084545C5D1013D55D040
:102B4C0021692046A1EB4511FFF77AFC814600284C
:102B5C009ED13846FFF749FA4FF6FF780190A169EC
:102B6C003046FFF7AAFA8146002891D1E369019A11
:102B7C00D6F80CE05A73E9B24FF00F024FF00D0C7F
:102B8C00DA72DFF8A8A018734A1E0CFB02F29876D2
:102B9C00D87684461AF8019B404518BF3EF81200BF
:102BAC0003F8090003EB090B0CF1010C18BF0132FF
:102BBC004FEA1029002808BF4046BCF10D0F8BF8D6
:102BCC000190E7D1404502D03EF812200AB941F0FD
:102BDC00400119700123F37000212046FFF792FC8D
:102BEC00814600287FF454AF013DB8D1A16930462D
:102BFC00FFF763FA814600287FF44AAFE369014688
:102C0C0003F1200203F8011B9A42FBD10B22E0696D
:102C1C003946FFF71DFA94F82B30E26903F01803DC
:102C2C0013730123F37033E721100100C4970008DC
:102C3C002DE9F74F0368009305468A4611F8013BCE
:102C4C002F2BFAD05C2BF8D00021A9609AF8003019
:102C5C001F2B00F2AE808023284685F82B3003B062
:102C6C00BDE8F04FFFF7ECBB0136B6E0812E0BD080
:102C7C000121FFF7F3F838B17F2807D8834911F801
:102C8C00013B1BB19842FAD106204EE029F8020F05
:102C9C00374697E038F81730202B02D02E2B40F017
:102CAC00A880013FA2E00131B3E0C14505D2BB428F
:102CBC004BD1B8F10B0F40D102E0B8F10B0F37D16B
:102CCC0044F003044FF00B0895F82030E52B04BFBB
:102CDC00052385F82030B8F1080F04BFB600F6B212
:102CEC0006F00C030C2B03D006F00302032A01D1CF
:102CFC0044F00204A10709D406F00306012E08BF14
:102D0C0044F01004042B08BF44F0080485F82B4051
:102D1C002846FFF76FFC95F82B30002838D0042894
:102D2C0003D113F0040F08BF052003B0BDE8F08FEA
:102D3C00BB4202D044F00304C6D8B600F6B23B4600
:102D4C004FF00B084FF008098EE07F280CD90021BA
:102D5C000193FFF783F844F00204019B58B14C4AED
:102D6C00104410F8800C30B14A4A12F8011B0029AB
:102D7C007ED08142F9D144F003045F2005EB0901B8
:102D8C0009F1010981F820006EE046F00206F5E732
:102D9C005A07CAD4AB79DB0668D5009B03F138011E
:102DAC002B69C3F308031944009B1878FFF75AFAF0
:102DBC00A8602B68D3F80CB0ABF102080AF1FF3411
:102DCC00C146002714F8010F1F2807F101060CD982
:102DDC002F2802D05C287FF449AF1AF806302F2B2D
:102DEC003FF442AF5C2B3FF43FAFB244002F7FF473
:102DFC0051AF00232BF81730002F3FF445AF05F1EE
:102E0C00200305F12B01202403F8014B8B42FBD14D
:102E1C0000213BF81130202B3FF445AF2E2B3FF413
:102E2C0042AF1F288CBF00240124A40009B144F038
:102E3C00030438F817302E2B01D0013FF9D14FF095
:102E4C0000094FF008084E463BF811004B1C0028B7
:102E5C003FF43AAF202805D02E287FF426AFBB4292
:102E6C003FF427AF44F003041946EDE705205CE777
:102E7C00A0F14101192988D9A0F1610119299EBF3E
:102E8C00203846F0010680B278E700BF349700087E
:102E9C00449700083D97000838B50446FFF707F93A
:102EAC00002851D12378032B46D12379012B43D110
:102EBC0004F1380104F50E720B46054603F8015B6C
:102ECC009342FBD1552384F83632AA2384F8373247
:102EDC00522384F8383084F83930612384F83A303E
:102EEC0084F81F32A36984F82032412284F83B20F5
:102EFC0084F81E221A0A84F821221A0C1B0E84F85C
:102F0C002332636984F822221A0A84F825221A0CC7
:102F1C0084F82622626A84F8243272201B0E013255
:102F2C0084F81C0284F81D0284F8273260786263EE
:102F3C000123FEF7EFFF2571002260781146FEF7A2
:102F4C00EDFF003818BF012038BD0000F0B585B08A
:102F5C00CDE9001003A816460391FFF755F8051E9E
:102F6C002ADB174F57F825404CB12069FEF7FCFFC0
:102F7C0018B90224204605B0F0BD00232370019C33
:102F8C0084B947F82540002CF4D0012E16D101A9A4
:102F9C0000226846FFF7DEFB044601460198FFF766
:102FAC004BF8E7E72146002301F8103BE8B2FEF7A7
:102FBC00CDFF0028E5D1DCE70B24DBE70024D9E7C3
:102FCC00801500202DE9F04790B0914601910546FF
:102FDC00002800F0EB8002F03F073A4602A901A856
:102FEC00FFF7B8FB002840F0DF80029E03964FF4F9
:102FFC008170FEF7CCFF804640B911213046FFF7B7
:10300C001BF81124204610B0BDE8F087F060019940
:10301C0003A8FFF70DFE044620B99DF93730002BAD
:10302C00B8BF062419F01C0F7CD0002C48D0042CFF
:10303C003BD103A8FFF7B8FC0446B0BB47F0080728
:10304C000A9B002421204C219C73DC731874597446
:10305C000A9B9C75DC75187659760A9B2022DA72CD
:10306C000A993078FFF7FEF8224681463046FEF783
:10307C00B0FF0A9B1C775C779C77DC770123F3709D
:10308C00B9F1000F27D02246494603A8D6F834A040
:10309C00FFF746F9044640B951463046FFF70DF8A4
:1030AC0009F1FF3171610446A8B14046FEF771FF8A
:1030BC000CB100232B6002982146FEF7BDFFA1E75F
:1030CC009DF8123013F0110F37D119F0040F65D1A0
:1030DC0019F0080FB4D1736B2B6239070A99696226
:1030EC00307848BF47F04007FFF7BCF8A86001F103
:1030FC001C00FEF750FF0023F288AA8005F12C0972
:10310C00E860AB622E602F746B74EB616B6105F53C
:10311C000B714A4602F8013B8A42FBD1BA060ED427
:10312C000024C2E7002CC0D19DF81230DC0637D445
:10313C0019F0020FCFD0D807CDD50724B5E7EF682B
:10314C00002FEDD07489A9686F616402BC4217D35B
:10315C000024A961002CA8D1C7F30803002BDFD0F1
:10316C003046FEF71AFFE8B100EB5722EA6170789F
:10317C0001234946FEF7CAFE041E18BF012494E73A
:10318C002868FFF777F801280146A7EB040703D955
:10319C00431CDBD10124DCE70224DAE7082484E7B2
:1031AC00042482E7022480E7044682E7092429E705
:1031BC002DE9F04F85B090460193019A00238A4681
:1031CC00136003A90446FFF77BF9054608B9657C33
:1031DC0025B103982946FEF72FFF09E0257C039EB5
:1031EC0015F0010508D107213046FEF725FF07250C
:1031FC00284605B0BDE8F08FE7686369FF1A4745BC
:10320C0028BF474604F12C0B2FB939463046FEF740
:10321C0013FF3D46ECE76169C1F30803002B7CD139
:10322C00B6F80A9009F1FF3919EA5123009319D124
:10323C0039B9A06801280FD8022565742946304693
:10324C00C9E7A36A1BB12046FEF7B2FEF2E7A169FB
:10325C002068FFF70FF8EDE7431C02D101216174E0
:10326C00EDE7A061A1693046FEF797FE0028E3D098
:10327C00009BB7F5007F03EB000832D3009A7389EB
:10328C00707802EB57229A4288BF009A4FEA57296E
:10329C0088BFA3EB02095FFA89F342465146FEF759
:1032AC0035FE0028DAD194F91030002B0BDAE069E6
:1032BC00A0EB0800484506D24FF4007259460AEBC1
:1032CC004020FEF7C5FE4FEA49286369019A434442
:1032DC006361019B1B684344C2441360A7EB08075E
:1032EC0092E7E269424516D094F910307078002BC1
:1032FC0009DA01235946FEF70DFE0028AED1237CD6
:10330C0003F07F0323747078012342465946FEF77D
:10331C00FDFD0028A2D1C4F81C806169C1F308012D
:10332C00C1F50078B84528BFB846424659445046C6
:10333C00FEF78EFEC9E773B501A90546FFF7C0F885
:10334C000446002843D12B7C019E13F040043ED050
:10335C001B0613D5EA697078012305F12C01FEF7E1
:10336C00D9FD38B101213046FEF766FE0124204616
:10337C0002B070BD2B7C03F07F032B74296A30469E
:10338C00FEF79BFE044610BB696ACB7A43F0200320
:10339C00CB72AA682868FEF71CFEEB680B771A0A3A
:1033AC004A771A0C1B0ECB7721230B764C234B76CA
:1033BC0001238C75CC758C74CC748A773046F37081
:1033CC00FFF76AFD2B7C23F0400304462B74019815
:1033DC002146FEF731FECAE737B50546FFF7ABFFCE
:1033EC00044650B901A92846FFF76AF8044620B9EB
:1033FC00286001460198FEF71FFE204603B030BD41
:10340C002DE9F04F85B00E4603A90546FFF758F895
:10341C00044608B96C7C3CB103982146FEF70CFEBF
:10342C00204605B0BDE8F08FAB6A039F002B78D027
:10343C00721C3AD11E46D5F8089056F804BB4FF0D2
:10344C000208B9F1000F25D048464FF0000A01469A
:10345C0001902868FEF70EFF012801990AF1010A74
:10346C0004D802246C741DE08146EDE7431C01D1A5
:10347C000124F7E701318142E9D008F10208C34584
:10348C0021BF334643F808ABC6F804901E46FB69CF
:10349C008342E9D8AB6AD845C3F8008000F2B48007
:1034AC000023336021463846B8E7EB689E4228BFBC
:1034BC001E466E61002EF5D006F1FF3841462846B7
:1034CC00FEF776FD0146A8613846FEF766FD00283A
:1034DC00C7D0C6F308067B89002EE3D05E1E06EA31
:1034EC0058260644EA69B242DCD095F91030787857
:1034FC00002B05F12C010ADA01230191FEF70AFDDC
:10350C0001990028B4D12B7C03F07F032B747878BD
:10351C0001233246FEF7FAFC04460028A8D1EE61DE
:10352C00C0E7EB68B34204D22A7C12F0020F08BF4A
:10353C001E4600226B696A617EB90026EA686B69D7
:10354C00934282BF2A7CEB6042F04002C3F3080333
:10355C0088BF2A74002BA5D0C4E7B7F80A804FEABD
:10356C00482813B3013B721EB3FBF8F1B2FBF8F21F
:10357C008A421AD3C8F100021340A9696B61F61A8A
:10358C000029DAD046456B691ED86B6933446B61F0
:10359C00C6F30803002BD0D03846FEF7FEFC0028FB
:1035AC003FF45FAF00EB5626C8E7A96851B928462F
:1035BC00FEF7EEFE012801463FF453AF481C3FF4E2
:1035CC0057AFA960A961DBE743446B612B7C9A0779
:1035DC00A6EB080906D52846FEF7DAFE064628B9FA
:1035EC000146D2E72868FEF745FE0646731C3FF4F9
:1035FC003FAF012E7FF635AFFB69B3427FF631AF9B
:10360C00AE6131464E46BDE711244BE72DE9F3413F
:10361C0004469046064600254F1EAF4210DD01AB16
:10362C00012269464046FFF7C3FD019B012B07D1E0
:10363C009DF8003006F8013B0A2B05F10105ECD191
:10364C0000239D4214BF20461846337002B0BDE8DB
:10365C00F0810EB403B503AA52F8041B019204F0D6
:10366C005DF902B05DF804EB03B07047436810B528
:10367C0004460C2B0BD8DFE803F0071113150A0ACC
:10368C000A0A0A0A17191B000B4804F01BFA237AC2
:10369C0083B1BDE81040094804F014BA0848F4E7B7
:1036AC000848F2E70848F0E70848EEE70848ECE776
:1036BC000848EAE710BD00BFD19700080998000838
:1036CC00D7970008DF970008E9970008F1970008E2
:1036DC00F997000801980008437A372B2AD016D89E
:1036EC00172B29D00BD8082B28D00D2B28D01949F3
:1036FC00194A032B08BF1146184804F0E3B91D2BD7
:10370C0020D01449164A262B08BF1146F4E7C02BCB
:10371C001AD007D8502B19D00E49124A862B08BF45
:10372C001146E9E7C52B13D00A490F4ACD2B08BF28
:10373C001146E1E70D49DFE70D49DDE70D49DBE710
:10374C000D49D9E70D49D7E70D49D5E70D49D3E721
:10375C000D49D1E75B9800081198000861980008A2
:10376C003498000841980008479800083B980008D6
:10377C0026980008189800081F9800082D98000833
:10378C00549800084F9800084D980008094B0A48B7
:10379C001A685B6810B50260084A094C116803711D
:1037AC000023437143F2390304FB0133136083712B
:1037BC0010BD00BFD81500208C150020041000206F
:1037CC006D4EC64137B504463349D0F8180104F0A4
:1037DC001BF868B9314B3248196804F073F9314859
:1037EC00FFF77AFF2F4803B0BDE83040FFF73EBF2C
:1037FC002D49D4F8180104F007F80546F8B9D4F8A7
:10380C00141104F5827204F021F890B12A4601A932
:10381C0005F074FA019B1B785BB9C3B20B2B08D86B
:10382C00224A2048D35C437203B0BDE83040FFF716
:10383C0053BF1F492046FFF70CFF03B030BD1D4995
:10384C00D4F8180103F0E0FF0546F0B9D4F81411D0
:10385C0004F5827203F0FAFFA0B12A4601A905F023
:10386C004DFA019B1B7873B9134B144900280EBFFA
:10387C00002501251946124B12481D7004F022F93F
:10388C001149D7E705460D49F5E7D4F818210F493A
:10389C002046FFF7DEFED0E77D9800088815002053
:1038AC0083980008D81500209098000817990008F4
:1038BC0099980008A49800086C980008749800085F
:1038CC00CA150020B2980008C5980008CA980008CC
:1038DC0038B504460D46302383F31188FCF742FFBC
:1038EC004FF0FF336362236820461B68C4E9075519
:1038FC009847FCF747FF002383F3118838BD00007D
:10390C000138022810B527D8144B1C56144B5A6892
:10391C00A24221D05C6000F0F3F80B2C0AD00C2CE6
:10392C0013D00A2C18D10F490F48FFF7D1FF0F49BC
:10393C00002205E00E490C48FFF7CAFF0D49002292
:10394C00BDE810400C4800F01DBF0C490648FFF7BD
:10395C00BFFF0B490022F3E710BD00BF149900080C
:10396C00D81500209415002038170020E698000880
:10397C00B8150020DB980008301C0020A61500208C
:10398C00F09800082DE9F0470027DFF87490DFF875
:10399C0074A0804604463D463E46D8F80030BB42F3
:1039AC0007D8164B1B68B3421ED8AE4222D3012057
:1039BC000CE099F8003033B194F90B30227A61683D
:1039CC00504604F07FF8627A207A1AB1BDE8F047CD
:1039DC00FFF796BF012803D1013601370834DCE725
:1039EC00032808BF0135F8E7AB4205D8AE4203D235
:1039FC000320EBE7AB42FBD9BDE8F08700100020B9
:103A0C00CA150020FB9800081D4A00230121032041
:103A1C00137053709370D370137153719171D37180
:103A2C001372C2F80A3050729373D37313745374B5
:103A3C00144A137053709370D37013715171917148
:103A4C00D3711372C2F80A3050729373D373137418
:103A5C0053740D4A137053709370D370137151716A
:103A6C009371D3711372C2F80A3050729373D3737B
:103A7C0013745374054AC2E900339360704700BF56
:103A8C00B815002094150020A6150020CC15002098
:103A9C00034B186818B19968091A04F089BE70476D
:103AAC00CC150020036837B50025DB682946044691
:103ABC00984784F8885084F8895084F88A5084F8A0
:103ACC008B5003B030BD13B5026C01916FF04043C5
:103ADC009C18026B02EB8402C9B25163C26D991837
:103AEC00C26C02EB81029DF805105163826F134486
:103AFC00826E02EB83039DF806205A6302B010BD60
:103B0C0008B5044803F0DEFFBDE80840024801F0A8
:103B1C003FB800BF23990008E415002008B50448FD
:103B2C0003F0D0FFBDE80840024801F01DB800BF0B
:103B3C002B990008E415002038B51C490446D0F830
:103B4C00180103F061FE20B919492046FFF781FDE9
:103B5C0038BD1849D4F8180103F056FE30B9164B8D
:103B6C00164A17492046FFF774FDF1E71549D4F8BA
:103B7C00180103F049FE18B9BDE8384003F02CB821
:103B8C001149D4F8180103F03FFE054640B9FFF780
:103B9C00B7FF2A460D490E48BDE8384000F0F2BD8B
:103BAC002046BDE83840FFF70DBE00BF3499000831
:103BBC00C598000839990008419900084C990008EB
:103BCC005B9900086299000866990008E69800085D
:103BDC00301C0020594E8FB5002506F198078DF842
:103BEC000D50302383F31188FCF7BCFD4FF0FF31EF
:103BFC003846FCF7E3FF48BBD6F8902050481346F4
:103C0C00526853F8084B0392834228BF3346143052
:103C1C00C6F89030FDF730F8FCF77AFFFCF7B2FDF0
:103C2C0085F311889DF80D30013B052BD7D801A2E7
:103C3C0052F823F05D3C0008EB3B0008EB3B00081E
:103C4C00FD3C0008053D0008373D00080024E5E771
:103C5C0040F2DE380DF10701204604F06BF9002824
:103C6C00BDD194F834349DF8079093B184F8345452
:103C7C00C4F83054FCF7A8FBB9F1080FD4F8303471
:103C8C00C4F838040ED1002BE4D0013BC4F8303416
:103C9C00E0E7D4F838A4FCF797FBA0EB0A0040450A
:103CAC00E4D8E7E7B9F10D0F02D0B9F10A0F16D13C
:103CBC00002BCFD0234404F22C4283F82C53D4F89D
:103CCC003C1404F54B7003F0C1FD0123C4F840040F
:103CDC0084F8343404F54A70FFF72EFFBAE7FE2B54
:103CEC009FBF5A1C1B19C4F8302483F82C93B1E7DE
:103CFC002046FFF747FE72E7124B01221A70124B57
:103D0C00D3F8800590F8B03A63B900F58053D3F836
:103D1C00B43A3BB900F50053D3F8B83A13B9FFF7EE
:103D2C00FDFE5CE700F0BEFC59E7084803F0CAFE54
:103D3C00044B1B78002B3FF452AFF0E788160020A1
:103D4C0018170020C4170020306C00206899000858
:103D5C002DE9F0410D460446061D42F2107740F263
:103D6C00E730002100234FF47A72E5FB0701FCF7E2
:103D7C00D3FA0546FCF76CFD636813B13046FDF7CA
:103D8C005DF9234629463046024ABDE8F041FDF76D
:103D9C003BB900BFE56A0008036AD0F88820D3F865
:103DAC000510914270B504460AD00268D3F8015050
:103DBC00D66845B9B047236AD3F80520C4F88820E3
:103DCC00093323622CE090F8882059798A4229D251
:103DDC00013284F8882094F8892099798A4224D277
:103DEC00013284F8892094F88A20D9798A421FD22A
:103DFC00013284F88A2094F88B201B7A9A421AD2CA
:103E0C00013284F88B202046D4F88810B047206A01
:103E1C00D4F88820D0F805309A420FD109302062AE
:103E2C00002042E0D7D9013AD3E7DCD9013AD8E7F0
:103E3C00E1D9013ADDE7E6D9013AE2E794F8885096
:103E4C0043798179D0F80120AB4294F8893017BFBF
:103E5C0004350025B2FBF5F50135994217BF191D44
:103E6C000021B2FBF1F10131A94294F88A3038BF3C
:103E7C002946C579007A9D4217BF04330023B2FB53
:103E8C00F3F30133994238BF194694F88B309842BA
:103E9C0017BF04330022B2FBF3F2013291422046E9
:103EAC0038BF1146FFF754FF012070BDF7B5BB4872
:103EBC00BB4C002103F018FBB8480022182103F07A
:103ECC00E3FAB84AB548136843F4E0631360012180
:103EDC0003F028FB0121B14803F014FB0223042258
:103EEC001821AE4803F028FBE368AC4843F080731C
:103EFC00E360E36843F48013E360D4F8883023F084
:103F0C00406343F00063C4F88830E36843F48033C3
:103F1C00E360D4F8883023F4400343F40003C4F87E
:103F2C00883000231A46194603F09CFA9B4803F08C
:103F3C003DFB10B9994803F04BFB9B4D97489B4EAA
:103F4C0003F0F0F9FCF734FAFCF7B0FE05F1A4002D
:103F5C001221C5E92455FCF7EDFD002105F198006F
:103F6C00FCF7E8FD9248934D04F034F802F01EFE85
:103F7C00914A9249126830600346914803F0A2FDC1
:103F8C00864803F015FA05F1300002F04DFFD5F824
:103F9C00841005F1300003F04FFA05F14C0002F0EB
:103FAC0043FFD5F8841005F14C0003F045FA05F1F8
:103FBC00680002F039FFD5F8841005F1680003F0B1
:103FCC003BFA002128460191FFF77DFD7D4A1368DD
:103FDC0095889179B3F1904F40F0AD80E26C42F04E
:103FEC000102E2646A001868D2B20324944020EA09
:103FFC00040018601F68012000FA02F217431F60CA
:10400C005F68A84027EA00075F605F68A9403943F2
:10401C005960D96821EA0401D960D968D9609968D6
:10402C0021EA0401996099680A439A609862B42065
:10403C00FCF722FF644802F0CDFA644800F0BCFEA5
:10404C006FF05F01614800F0A8FE604801F070F865
:10405C005E4801F082F85D48002100F0ABFD45F2AE
:10406C0022615A4800F0C8FD4FF4E170FCF704FFE0
:10407C000921564800F06FFE0021544800F08DFED7
:10408C00534800F0CFFAFFF73BFD524804F028FAF2
:10409C0002F0D2FD02F0FAFD02F0E4FD02F078F934
:1040AC00C0B230B143484C49FFF712FC4B48FCF707
:1040BC00E3FE484B93F83832002B00F0AF80484AAF
:1040CC004849494801AB04F0D1F938B90199642940
:1040DC0004D84A104548263A03F0F4FC00213B482A
:1040EC0000F05BFE6FF00901384800F034FE00224E
:1040FC003F49374800F046FB3E492E48FFF7E8FBA6
:10410C00302383F31188FCF72DFB3B4803F03CFB79
:10411C00FCF738FB002383F3118848F6A040FCF72A
:10412C00ABFE0A2335492348736026237372FFF7CD
:10413C00CFFBFFF74FFD324A934203D1E26C42F0C2
:10414C0002024EE72F4A934203D1E26C42F0040282
:10415C0047E72D4A934203D1E26C42F0080240E754
:10416C002A4A934203D1E26C42F0100239E7284A02
:10417C00934203D1E26C42F0200232E7254A93428B
:10418C0003D1E26C42F040022BE7234A93427FF4C6
:10419C0029AFE26C42F0800223E700BF908200203E
:1041AC00001002400020024088160020D815002084
:1041BC00EC17002038170020081000204C9900083C
:1041CC0071990008EC15002078820020E41500207D
:1041DC00301C002004860020F4150020005125021C
:1041EC00859900088C99000893990008A0990008FB
:1041FC00E698000858160020C817002073160020F7
:10420C000004004800080048000C0048001000485A
:10421C000014004800180048001C004802490348DC
:10422C00FFF756FB79E700BFF41500203817002084
:10423C0038B504460D46FCF70BFBD4F8AC30002B1C
:10424C0002DC4FF0020038BDFCF702FBD4F8AC30B6
:10425C002968013BC4F8AC30D4F8943003F108025F
:10426C00C4F8942019606968596004F190039A426B
:10427C0004F1980028BFC4F89440FCF7FDFC4FF003
:10428C000000E0E738B50446FCF7E2FA636833B1A6
:10429C00FCF7DEFA636813B1201DFCF7CFFE4FF07C
:1042AC00FF35236A1A78042AFDD8DFE802F0030AE6
:1042BC0014253100236820469B6898470128F0D1CB
:1042CC0038BDD3F80110093323620029E9D0204608
:1042DC00FFF73EFDF4E7D3F80130E26903EBC303CB
:1042EC001A4494F82D30226223B1124804F12801AB
:1042FC00FFF79EFF0121EAE794F82D3023B10D481A
:10430C0004F12801FFF794FF0023C4E90733D7E732
:10431C00626A013204BFD3F801206262626A1AB980
:10432C00093365622362BCE7E3692362013A626286
:10433C00B7E700BF881600207C4B2DE9F0476822B8
:10434C0000240126FF274FF003085A701C709E7042
:10435C00DC701C715F719F719A72DF711C725C72E0
:10436C00DE721C735C739C73DC731C745C74C3F81A
:10437C00134083F81280DC751C765C769C766C4B53
:10438C006C4D1C704FF004095A225C709C70DC70F0
:10439C001C715F719C71DC719A721A771C725E725F
:1043AC00DC721C735C739C73DC731C745C749C7487
:1043BC00DC741C755C759C75DC751C765C769C7667
:1043CC00DE765C779C77DC7783F8204083F821409D
:1043DC0083F8224083F8234083F8249083F82580C7
:1043EC0083F8264083F8274083F8284083F8294037
:1043FC0083F82A4083F82B4083F82C40C3F82E40D6
:10440C0083F82D8083F8324083F8334083F83440AE
:10441C0083F83540484B494A1C705C709C70DC70CA
:10442C001C715E719E71DC711C72C3F80A4083F8BA
:10443C0009809C73DC731C745C74414B002000215C
:10444C00C3E90001C3E924333E4B3F484FF4E1314B
:10445C00C2E900134FF0904A0923C2E902A30A23D0
:10446C00C2F810A0C2E90538384BC2F81C90C2E95A
:10447C000803022382F82830354BDA6003F110026E
:10448C00C3E98422334AC3F83C24334A1A601432F9
:10449C00C3F82823C3E90144C3E9874483F81862AD
:1044AC00C3F82442C3F82C44C3F83844C3F830444E
:1044BC0083F83444C3F840442022214605EB09001C
:1044CC0004F036FC254B264AEC62C5E90C32C5E9F2
:1044DC001A32C5E90E43C5E91273C5E91639C5E9A7
:1044EC001C93204B2B60204BC5F88840C5E9142643
:1044FC000F229A80C3F800A09C711C4B1C4AC3E984
:10450C0000441C4B4FF0FF31C5E90914C5E9108478
:10451C00C5E91847C5E91E64C5E920711A6049F65A
:10452C004042DA6105221A84BDE8F0875816002053
:10453C00F415002038170020731600202C160020CC
:10454C00881600200038014092000200A0100200E2
:10455C00EC170020B2990008E0BC000800040040F1
:10456C0000040048C0990008EC150020E415002058
:10457C00D4BC0008C81700204069704708B5FEF786
:10458C003FFF014620B1034803F09CFA002008BD10
:10459C000120FCE7E699000813B5002401AB019457
:1045AC00FEF706FE10B9019802B010BD2046FBE7DD
:1045BC0010B54FF4806200F50B700C4600F0A8FEAD
:1045CC0004F58054206010BD90F8B03A5BB900F54A
:1045DC008053D3F8B43A43B900F50050D0F8B83A48
:1045EC00003B18BF0123184670470123FBE700006E
:1045FC0013B5022304460093074A084B084900F5FB
:10460C000B7000F0FBFD04F500530022204683F8EC
:10461C00BC2A02B010BD00BF89450008A5450008A2
:10462C008545000813B50C4C122104F1A400C4E913
:10463C002444FCF77FFA04F198000021FCF77AFA85
:10464C00002300938022054B054840F69811FCF797
:10465C00C9FB02B010BD00BF607B0020AD4A000852
:10466C00C071002000F5A04310B4D3F8804500F5CC
:10467C002B52014684421CBF10460A46C3F88025C3
:10468C00C3F8840500F580530022C3F8B42A00F562
:10469C0000535DF8044BC3F8B82A114600F50B70B3
:1046AC0000F021BE4FF40772042100F50B7000F0EE
:1046BC001ABE38B504460D46FCF7CAF8D4F8AC302F
:1046CC00002B02DC4FF0020038BDFCF7C1F8D4F827
:1046DC00AC302968013BC4F8AC30D4F8943003F109
:1046EC000802C4F8942019606968596004F19003B9
:1046FC009A4204F1980028BFC4F89440FCF7BCFA25
:10470C004FF00000E0E7000013B500F5A044D4F82A
:10471C008035D4F8882503F6B4218A4204BF03F50A
:10472C00D551183101F58053C4F888151A68CAB9E7
:10473C00FFF798FFD4F8803503F6B42103F58053C6
:10474C00C4F88815D3F8B42A1AB10948520000F0FD
:10475C006FFA0223694607488DF80530FFF7A9FF69
:10476C0002B010BD0248520000F062FA0123F1E7DA
:10477C00E4150020607B00200148FFF7C5BF00BF97
:10478C00301C00200D4B13B50D485860A1B100240E
:10479C0000918DF804208DF80540302383F31188A7
:1047AC00FBF7E0FF69460748FFF783FFFCF7B0F91A
:1047BC00FBF7E8FF84F3118802B010BDE41500206C
:1047CC0085470008607B002038B504460D46302331
:1047DC0083F31188FBF7C6FFFCF73AF8D4F8AC303A
:1047EC00002B24DDFCF734F8D4F8AC302968013BFD
:1047FC00C4F8AC30D4F8943003F10802C4F8942017
:10480C0019606968596004F190039A4228BFC4F892
:10481C00944004F19800FCF72FFA0024FCF778F987
:10482C00FBF7B0FF002383F31188204638BD022428
:10483C00F4E70000F0B5064606F5A04489B0394807
:10484C000D46174603F03EF9D4F884150591084639
:10485C00FEF7C2FD0599284603F01EFE00284CD138
:10486C00D4F884154FF480533A1ECDE9010000931F
:10487C0018BF0122012301F50B7000F0F6FCD0B338
:10488C00D4F8840500F50053012283F8BC2A00F605
:10489C00B421FFF78DFED4F8840500F5D5511831FD
:1048AC00FFF786FED4F88005FFF78EFE054610BB99
:1048BC003046FFF7D7FED4F880351B4803F6B421F9
:1048CC0003F58053C4F88815D3F8B42A520000F0CD
:1048DC00AFF902238DF81D30302383F31188FBF7D9
:1048EC0041FF06A91148FFF7E4FEFCF711F9FBF7AD
:1048FC0049FF85F3118809B0F0BD29460C4803F037
:10490C00E1F800244FF4C06306A90A48CDE9064338
:10491C00FFF75AFF0848214609B0BDE8F040FCF704
:10492C00E4BA00BFF2990008E4150020607B002077
:10493C00FB99000888160020587B002073B500F501
:10494C00A0460446D6F88005CDE90021FFF73CFED1
:10495C00DDE9002105462046FFF76CFF35B1D6F89E
:10496C00800502B0BDE87040FFF79CBE02B070BD80
:10497C00454E8FB50546002706F198088DF8057051
:10498C00302383F31188FBF7EDFE4FF0FF314046E7
:10499C00FCF714F910BBD6F890203C48134652682B
:1049AC0053F8084B0192834228BF33461430C6F8A3
:1049BC009030FCF761F9FCF7ABF8FBF7E3FE87F3FB
:1049CC001188334B93F8383253B9029302A94FF440
:1049DC00C06330480393FFF7F7FECFE70024ECE702
:1049EC009DF80530012B0AD0022B43D0002BC5D1EA
:1049FC009DF8042021462846FFF7A0FFBEE705F5E9
:104A0C00A049D9F88005D9F8883500F6B424A3421A
:104A1C0004BF00F5D5541834214604F58054FFF733
:104A2C00C7FD2368002BA9D1D9F8843503F5805232
:104A3C00D2F8B42A2AB103F5005393F8BC3A002BF0
:104A4C009CD1DFF8589002E00A20FCF715FA484692
:104A5C0000F01AF904460028F6D102904FF4C06316
:104A6C0002A90C480393FFF7AFFE0B482146FCF755
:104A7C003CFA83E705F5A0430848D3F88035D3F812
:104A8C00741200F0B9F879E7607B0020F07B00200D
:104A9C000486002088160020587B0020E415002096
:104AAC0008B50148FFF764FF301C002038B5144CE2
:104ABC004FF42B520021204604F03AF904F52B5503
:104ACC002046FFF795FD4FF42B520021284604F0A9
:104ADC002FF92846FFF78CFD04F5A0430022C3F8FC
:104AEC008045C3F88455C3F88825C3F88C25054B3D
:104AFC0000200021C3E90001C3E9243338BD00BF05
:104B0C00301C0020607B002008B5302383F3118813
:104B1C00FBF74AFE044B5B6803B19847FBF756FE64
:104B2C00002383F3118808BDE415002007B5022388
:104B3C008DF804008DF8051001AA4A21024801F0F5
:104B4C0047FE03B05DF804FB78820020044B5A68E2
:104B5C0022F480325A605A68D203FCD4704700BFEA
:104B6C00005401407047000010B5FF21044602209C
:104B7C00FFF7DCFF054A1369126803F18043013B20
:104B8C0002EB830300225A63627010BD107C00207C
:104B9C0038B5074B1A691B6803EB820304460125E1
:104BAC001D63FE210220FFF7C1FF657038BD00BFF9
:104BBC00107C002008B50E4B1B685868026822F068
:104BCC000F020260187C1A680E2383405360FFF7B3
:104BDC00BDFF084B5A68D203FCD45A6829B922F499
:104BEC0080525A600A229A6008BD42F48052F8E75B
:104BFC002C7C00200054014045F2226399420FD0D6
:104C0C004AF6444399420DD04BF6803399420BD06F
:104C1C00064B994214BF522102210520FFF786BF93
:104C2C004621FAE72621F8E72221F6E70077010072
:104C3C00124B1868436870B51C68066824F00F04A2
:104C4C001C60047C0E25A5407560C568D960286879
:104C5C000F21A14020EA01000121A140014329605C
:104C6C00074919605A601A6842F001021A60054A35
:104C7C00536843F48033536070BD00BF2C7C00201C
:104C8C009215010000540140034B1B685B68586887
:104C9C00003818BF012070472C7C00201FB5012361
:104CAC00CDE900238DF80F100DF10F024A210348B6
:104CBC0001F0E0FD05B05DF804FB00BF7882002038
:104CCC0007B561F07F018DF804108DF805208DF883
:104CDC000620032301AA4A21024801F079FD03B002
:104CEC005DF804FB78820020202928BF20211029A0
:104CFC0038BF1021A1F11002D2B2520042F02002B2
:104D0C0002F0FE021021FFF7DBBFC9B28B1DDBB234
:104D1C00122B05D8490001F03E021221FFF7D0BF3B
:104D2C0007207047CAB202F16003DBB2782B02D8BD
:104D3C001621FFF7C5BF07207047C9B201F1330335
:104D4C00DBB23F2B05D8490001F0FE021A21FFF718
:104D5C00B7BF07207047C9B201F16603DBB2722BF3
:104D6C0005D8490001F0FE022021FFF7A9BF07205A
:104D7C007047CAB210B402F16004E4B2602C08D8D7
:104D8C00017052005DF8044B02F0FE022221FFF785
:104D9C0097BF07205DF8044B7047C9B201F160035F
:104DAC00DBB2602B05D8490001F0FE022421FFF78D
:104DBC0087BF072070470000F7B5444A1368B2F864
:104DCC0004C09179B3F1904F054647D14048C26C6D
:104DDC0042F00102C2644FEA4C021C68D2B20327B3
:104DEC0007FA02F024EA00041C601C68012606FA8B
:104DFC0002F214431C60D3F804E006FA0CF42EEA19
:104E0C00040EC3F804E0D3F804E001FA0CF141EA13
:104E1C000E015960D96821EA0001D960D968D960BE
:104E2C00996821EA0001996099680A439A60B42054
:104E3C009C61FCF721F84A21264801F097FC0DF102
:104E4C00070231462846FFF729FF0446002853D0B5
:104E5C000146214802F036FE03B0F0BD1F4A9342D2
:104E6C0004D11B48C26C42F00202B3E71C4A9342C5
:104E7C0004D11748C26C42F00402ABE7194A9342C2
:104E8C0004D11348C26C42F00802A3E7164A9342BD
:104E9C0004D10F48C26C42F010029BE7134A9342B4
:104EAC0004D10B48C26C42F0200293E7104A9342A3
:104EBC0004D10748C26C42F040028BE70D4A934282
:104ECC0089D10348C26C42F0800283E7307C002019
:104EDC0000100240788200200B9A00080004004861
:104EEC0000080048000C004800100048001400485E
:104EFC0000180048001C0048FE210220FFF716FE97
:104F0C006E7007213846FFF711FEFF210420FFF7D2
:104F1C000DFE52210520FFF709FE93210620FFF715
:104F2C0005FE39460720FFF701FE90210820FFF708
:104F3C00FDFD80210920FFF7F9FDAF210A20FFF7C5
:104F4C00F5FD21460C20FFF7F1FD60210D20FFF748
:104F5C00EDFD02210E20FFF7E9FD02210F20FFF7E6
:104F6C00E5FD28461021FFF7BFFE21462846FFF736
:104F7C00CCFE21462846FFF7D5FE80221821284674
:104F8C00FFF79EFE21462846FFF7D7FE214628460E
:104F9C00FFF7E1FE21462846FFF7EBFE21462846A7
:104FAC00FFF7FBFE21462620FFF7C0FD48212F20EE
:104FBC00FFF7BCFD554B564D4FF400121A641C64A0
:104FCC001A6C1A6E42F400121A66DA6C42F0020283
:104FDC00DA64504A116821F440211160116841F4DF
:104FEC0000211160516821F400715160D16821F4E5
:104FFC004021D160D168D160916821F44021916049
:10500C00916841F480219160516A21F0F001516264
:10501C00516A41F0D0015162D96C41F00201D9645E
:10502C00116821F440111160116841F400111160F4
:10503C00516821F480615160D16821F44011D16034
:10504C00D168D160916821F440119160916841F46C
:10505C0080119160516A21F470615162516A41F47E
:10506C0050615162DA6C42F00402DA642A4A136825
:10507C0023F0C0031360136843F08003136053687C
:10508C0023F008035360D36823F0C003D360D368C4
:10509C00D360936823F0C0039360936843F040039C
:1050AC009360136A23F470431362136A43F45043FE
:1050BC001362284601F0B8FE2A692B6803EB8203C1
:1050CC0009211E63FFF742FD144B8222C3F80044F2
:1050DC00C3F804240222C3F808241F22C3F80C24AA
:1050EC000F4AC3F81024C3F81444D3F8042442F430
:1050FC000032C3F8042407200A4A2346FBF734FA8B
:10510C00094B0A4A186043689A60A5E600100240F1
:10511C00107C0020000400480008004800500140AA
:10512C0000010300154B00082C7C0020205401408A
:10513C0007B500230DF1070204218DF80730FFF7A6
:10514C00ADFD9DF80710042041F0F0018DF807101B
:10515C00FFF7ECFC03B05DF804FB07B500230DF181
:10516C00070204218DF80730FFF798FD9DF8071012
:10517C0021F00F0141F00A0104208DF80710FFF710
:10518C00D5FC02210F20FFF7D1FC03B05DF804FB26
:10519C0007B5FBF72DFB0A4B9A6B120708D51A6C57
:1051AC00ADF804201B6CADF8063001A8FFF7DAFC53
:1051BC00FBF736FB03B05DF804EBFCF70FB800BF50
:1051CC0000540140094B0A4810B50022094C1C60E0
:1051DC0003219A719980084BC3E900040824C3E9A0
:1051EC000412C3E9024001229A6110BD307C0020F8
:1051FC000008004000040048107C002038B5049DD5
:10520C0004460120C4E90150207000254FF0805065
:10521C00C4E90305C4E90655A582256204F12400FE
:10522C0000F036F9C4F88058A4F88458204638BDEC
:10523C0010B5047894B190F884487CB1B1F5804FE6
:10524C0028BF4FF4804102614AB182898382534363
:10525C0083610023C361C3890384418410BDC0E909
:10526C00062282820184C181F7E72DE9F0410446D0
:10527C000078884618B900252846BDE8F08100263C
:10528C0004F12407A4F88468384600F067F9054651
:10529C000028F0D0616CC4F88088022903D9384604
:1052AC0000F0FDF8E7E762688A421AD0B2FBF1F32E
:1052BC0001FB1322002AF2D1A3604FF47A72A36C83
:1052CC00B3FBF2F3A3810023E381012384F8843838
:1052DC00079ABDF82030BDF818102046FFF7A8FF3C
:1052EC00CAE70123E8E738B513460278044642B111
:1052FC000A460021FFF79CFF05691DB1012380F8C8
:10530C00853838BD243000F0CAF8A4F88458F8E782
:10531C002DE9F0470578044688466DB190F884581D
:10532C0055B18368243000F0BCFA054638B9024602
:10533C0001462046FFF7D7FF2846BDE8F087DFF887
:10534C0008A1002747F6FF79E389B3F5805F05D103
:10535C002369F3B90137BD42F6D1EDE7626807FB6B
:10536C0002F308EB4301134408EB43028A42EFD0EB
:10537C0031F9023BE089434348BF03F6FF731B132B
:10538C005345B8BF53464B45A8BF4B4621F8023C8A
:10539C00ECE7D4E906329A420ED194F8853833B151
:1053AC00002211462046FFF79EFF3D46C4E7618C64
:1053BC001A462046FFF73CFFE3692269218C668C74
:1053CC000133013AE361761A052AC3D8DFE802F00B
:1053DC0003030E1E2828A289B3FBF2F39BB2A28A08
:1053EC00734393FBF2F31944E181B3E7A18AA089DB
:1053FC00B3FBF0F0081A80B200F028F87043238C4D
:10540C0048BF484403EBE033E381A3E7A089A18ABA
:10541C00B3FBF0F080B200F019F8C0F50040EDE7F6
:10542C00A289B3FBF2F04000A18A80B200F00EF822
:10543C00C0F50040464348BF06F57F46238C48BF65
:10544C00FF3603EB2643DFE70080FFFF0003B0FBD2
:10545C00F1F0C0F30D00B0F5805F0C4B02D833F9BE
:10546C0010007047B0F5005F06D8C0F5005033F857
:10547C001000404200B27047B0F5405F02D8A0F572
:10548C000050F4E7C0F58040E9E700BF249A00081B
:10549C0030B50025C0E903120570436130BD00230F
:1054AC0003707047D0E902031847036980681847F6
:1054BC0043698068184708B50222FFF7F9FF0128F5
:1054CC0094BF0020012008BD08B50422FFF7F0FFAF
:1054DC00032894BF0020012008BD10B51446FFF727
:1054EC00E7FFA04234BF0020012010BD816C436B4C
:1054FC004FF40062B2FBF3F28A4228BF0A4610B5A1
:10550C005A4300F14C010446FFF7D2FF636BB0FB2A
:10551C00F3F0C4F84C0810BDF8B50446C36B4364F3
:10552C00002600F14C0786640D46102231463846A1
:10553C0003F0FEFBC4F85078C4F85478C4F84C68F7
:10554C005DB1204600F026F938B194F8583823B9EB
:10555C002046BDE8F840FFF7C9BFF8BD2DE9F0477C
:10556C000446864D0020C4E9012188B01F462070F6
:10557C0001462046FFF799FF20B90026304608B0B7
:10558C00BDE8F087042202A92046FFF7A6FF0028F9
:10559C00F3D003A92046FFF797FF0028EDD0042293
:1055AC00294602A803F0B4FB40B12046FFF77AFF6E
:1055BC00039BC118CB07DCD50131DAE7039BA36150
:1055CC00042204A92046FFF788FF0028D5D06C4997
:1055DC00042204A803F09CFB0028CED1DFF8A481A0
:1055EC00042202A92046FFF778FF0028C5D003A9A2
:1055FC002046FFF769FF0028BFD02046FFF752FF77
:10560C00039BC518EE074FF00402414602A848BFA1
:10561C00013503F07DFB064630B129462046FFF7E5
:10562C0044FF0028DCD1A8E70DF102012046FFF76A
:10563C0042FF0028A1D0BDF80230012B9DD1E361BF
:10564C0001A92046FFF737FF002896D0BDF804309B
:10565C00022B92D8236205A92046FFF735FF0028BC
:10566C008BD0059B636206A92046FFF72DFF00280F
:10567C0083D0069BA3620DF106012046FFF71BFFAA
:10568C0000283FF47AAFBDF80630E362E369012BE2
:10569C0049D107A92046FFF70EFF00283FF46DAF54
:1056AC00BDF81C302363E36A6363102B3FF665AFD0
:1056BC00226AB3FBF2F3A363DFF8CC90DFF8CCA043
:1056CC00DFF8CC8029462046FFF7EFFE00283FF498
:1056DC0054AF042202A92046FFF7FFFE00283FF436
:1056EC004CAF03A92046FFF7EFFE064600283FF417
:1056FC0044AF0422494602A803F00AFBB8B9E807F4
:10570C0048BF0135E5632046FFF7CCFE039B1844E8
:10571C00C30748BF0130012320642370394620465B
:10572C00FFF7FAFE2AE7C4E90C66A663C4E7204635
:10573C00FFF7B8FE039BC518E9074FF0040251466A
:10574C0002A848BF013503F0E3FA0028BAD10422BD
:10575C0007A92046FFF7C1FE00283FF40EAF042234
:10576C00414607A803F0D4FA0028ABD12046FFF736
:10577C0099FEC20748BF0130E063C4E726BA0008AF
:10578C002BBA000830BA000835BA00083ABA00083B
:10579C003FBA000830B5816C85B0044600294BD166
:1057AC00D0E910329A4204D14368012B1CD1FFF787
:1057BC00B3FE616C2046FFF778FEA8B104220DEB16
:1057CC0002012046FFF789FE054668B104221B49F9
:1057DC000DEB020003F09CFA40B1042218490DEBCA
:1057EC00020003F095FA10B100251AE0054684F882
:1057FC00585802A92046FFF767FE05460028F3D04B
:10580C0094F8583883B9626B029BB3FBF2F3A36430
:10581C002046FFF747FE029B0344DA0748BF0133DB
:10582C006364284605B030BD03A92046FFF74CFE43
:10583C000028D9D0039BEAE70125F2E735BA000826
:10584C0044BA000838B504460D46FFF7A3FF08B963
:10585C00002038BD94F858380BBBD4F84C3843B9F9
:10586C002046FFF743FE0028F2D004F14C03C4F8A5
:10587C005438D4F84C38D4F85428616BC4F85028F8
:10588C009D42284628BF184601FB00221B1AC4F86B
:10589C005428C4F84C38A36C1B1AA364D9E7012014
:1058AC00F9E72DE9F04F067885B005460C460092D5
:1058BC0098462EB14FEA43090026009B9E4203D323
:1058CC00304605B0BDE8F08FEB69012BF8D1009B99
:1058DC002846991BFFF7B6FF07460028F0D0AB6BA4
:1058EC002A6AD5F85018012B20D102FB09FBA646D9
:1058FC004FF0000A8B18F446019308E011F8013BB5
:10590C00803B1B021BB2002040450BD1CC44019BB9
:10591C009942F3D10AF1010ABA45DE44EAD107FBF8
:10592C000B4410E02CF810300130EDE7022B0CD1B9
:10593C00B8F1010F09D142434FEA420A20465246C0
:10594C0003F036FA54443E44B7E7023B19444FF097
:10595C00000B4FF0000A10E002220DF10E00019135
:10596C0003F026FAAB6B0199BDF90E201944002304
:10597C0043450AD14C440AF1010A2B6A5345EBD832
:10598C000BF1010BBB45E4D1DDE724F81320013307
:10599C00EEE7816A09B1836A18472430FBF794BAA1
:1059AC00B0F1904F05D11F4AD36C43F00103D3647F
:1059BC0070471D4B984204D11A4AD36C43F0020332
:1059CC00F5E71A4B984204D1164AD36C43F0040302
:1059DC00EDE7174B984204D1124AD36C43F00803FD
:1059EC00E5E7144B984204D10E4AD36C43F01003F4
:1059FC00DDE7114B984204D10A4AD36C43F02003E3
:105A0C00D5E70E4B984204D1064AD36C43F04003C1
:105A1C00CDE70B4B9842CBD1024AD36C43F08003B9
:105A2C00C5E700BF00100240000400480008004811
:105A3C00000C0048001000480014004800180048F2
:105A4C00001C0048F8B504461546FFF7A9FF23686B
:105A5C0048000322824023EA0203236026680223C3
:105A6C008340334323606668012303FA01F726EA77
:105A7C0007066660E66826EA0206E660E668E66007
:105A8C00A66826EA0202A260A26883401343072993
:105A9C00A3608ABFA1F108038B009B0007298CBF70
:105AAC000422002214440F21226A994022EA0102A6
:105ABC002262226A9D4015432562F8BD0368197362
:105ACC0003689A68D207FCD5187B7047428A8168B4
